{
	"data": {
		"bytecode": {
			"linkReferences": {},
			"object": "60806040526802b5e3af16b188000060005534801561001d57600080fd5b506108398061002d6000396000f3fe60806040526004361061003f5760003560e01c80633c7e7d2814610044578063b60d428814610081578063dc0d3dff1461008b578063dc992aa0146100c8575b600080fd5b34801561005057600080fd5b5061006b6004803603810190610066919061039a565b6100f3565b60405161007891906103e0565b60405180910390f35b61008961010b565b005b34801561009757600080fd5b506100b260048036038101906100ad9190610427565b610200565b6040516100bf9190610463565b60405180910390f35b3480156100d457600080fd5b506100dd61023f565b6040516100ea91906103e0565b60405180910390f35b60026020528060005260406000206000915090505481565b60005461011734610245565b11610157576040517f08c379a000000000000000000000000000000000000000000000000000000000815260040161014e906104db565b60405180910390fd5b6001339080600181540180825580915050600190039060005260206000200160009091909190916101000a81548173ffffffffffffffffffffffffffffffffffffffff021916908373ffffffffffffffffffffffffffffffffffffffff16021790555034600260003373ffffffffffffffffffffffffffffffffffffffff1673ffffffffffffffffffffffffffffffffffffffff16815260200190815260200160002081905550565b6001818154811061021057600080fd5b906000526020600020016000915054906101000a900473ffffffffffffffffffffffffffffffffffffffff1681565b60005481565b60008061025061027f565b90506000670de0b6b3a76400008483610269919061052a565b61027391906105b3565b90508092505050919050565b60008073d4a33860578de61dbabdc8bfdb98fd742fa7028e905060008173ffffffffffffffffffffffffffffffffffffffff1663feaf968c6040518163ffffffff1660e01b815260040160a06040518083038186803b1580156102e157600080fd5b505afa1580156102f5573d6000803e3d6000fd5b505050506040513d601f19601f820116820180604052508101906103199190610671565b5050509150506402540be4008161033091906106ec565b9250505090565b600080fd5b600073ffffffffffffffffffffffffffffffffffffffff82169050919050565b60006103678261033c565b9050919050565b6103778161035c565b811461038257600080fd5b50565b6000813590506103948161036e565b92915050565b6000602082840312156103b0576103af610337565b5b60006103be84828501610385565b91505092915050565b6000819050919050565b6103da816103c7565b82525050565b60006020820190506103f560008301846103d1565b92915050565b610404816103c7565b811461040f57600080fd5b50565b600081359050610421816103fb565b92915050565b60006020828403121561043d5761043c610337565b5b600061044b84828501610412565b91505092915050565b61045d8161035c565b82525050565b60006020820190506104786000830184610454565b92915050565b600082825260208201905092915050565b7f4469646e742073656e6420656e6f756768000000000000000000000000000000600082015250565b60006104c560118361047e565b91506104d08261048f565b602082019050919050565b600060208201905081810360008301526104f4816104b8565b9050919050565b7f4e487b7100000000000000000000000000000000000000000000000000000000600052601160045260246000fd5b6000610535826103c7565b9150610540836103c7565b9250817fffffffffffffffffffffffffffffffffffffffffffffffffffffffffffffffff0483118215151615610579576105786104fb565b5b828202905092915050565b7f4e487b7100000000000000000000000000000000000000000000000000000000600052601260045260246000fd5b60006105be826103c7565b91506105c9836103c7565b9250826105d9576105d8610584565b5b828204905092915050565b600069ffffffffffffffffffff82169050919050565b610603816105e4565b811461060e57600080fd5b50565b600081519050610620816105fa565b92915050565b6000819050919050565b61063981610626565b811461064457600080fd5b50565b60008151905061065681610630565b92915050565b60008151905061066b816103fb565b92915050565b600080600080600060a0868803121561068d5761068c610337565b5b600061069b88828901610611565b95505060206106ac88828901610647565b94505060406106bd8882890161065c565b93505060606106ce8882890161065c565b92505060806106df88828901610611565b9150509295509295909350565b60006106f782610626565b915061070283610626565b9250827f7fffffffffffffffffffffffffffffffffffffffffffffffffffffffffffffff0482116000841360008413161615610741576107406104fb565b5b817f8000000000000000000000000000000000000000000000000000000000000000058312600084126000841316161561077e5761077d6104fb565b5b827f800000000000000000000000000000000000000000000000000000000000000005821260008413600084121616156107bb576107ba6104fb565b5b827f7fffffffffffffffffffffffffffffffffffffffffffffffffffffffffffffff05821260008412600084121616156107f8576107f76104fb565b5b82820290509291505056fea2646970667358221220ef31795e7164c1b5f4b039a40e85af4eec373d3b09dfc34b31733d81092b648c64736f6c63430008080033",
			"opcodes": "PUSH1 0x80 PUSH1 0x40 MSTORE PUSH9 0x2B5E3AF16B1880000 PUSH1 0x0 SSTORE CALLVALUE DUP1 ISZERO PUSH2 0x1D JUMPI PUSH1 0x0 DUP1 REVERT JUMPDEST POP PUSH2 0x839 DUP1 PUSH2 0x2D PUSH1 0x0 CODECOPY PUSH1 0x0 RETURN INVALID PUSH1 0x80 PUSH1 0x40 MSTORE PUSH1 0x4 CALLDATASIZE LT PUSH2 0x3F JUMPI PUSH1 0x0 CALLDATALOAD PUSH1 0xE0 SHR DUP1 PUSH4 0x3C7E7D28 EQ PUSH2 0x44 JUMPI DUP1 PUSH4 0xB60D4288 EQ PUSH2 0x81 JUMPI DUP1 PUSH4 0xDC0D3DFF EQ PUSH2 0x8B JUMPI DUP1 PUSH4 0xDC992AA0 EQ PUSH2 0xC8 JUMPI JUMPDEST PUSH1 0x0 DUP1 REVERT JUMPDEST CALLVALUE DUP1 ISZERO PUSH2 0x50 JUMPI PUSH1 0x0 DUP1 REVERT JUMPDEST POP PUSH2 0x6B PUSH1 0x4 DUP1 CALLDATASIZE SUB DUP2 ADD SWAP1 PUSH2 0x66 SWAP2 SWAP1 PUSH2 0x39A JUMP JUMPDEST PUSH2 0xF3 JUMP JUMPDEST PUSH1 0x40 MLOAD PUSH2 0x78 SWAP2 SWAP1 PUSH2 0x3E0 JUMP JUMPDEST PUSH1 0x40 MLOAD DUP1 SWAP2 SUB SWAP1 RETURN JUMPDEST PUSH2 0x89 PUSH2 0x10B JUMP JUMPDEST STOP JUMPDEST CALLVALUE DUP1 ISZERO PUSH2 0x97 JUMPI PUSH1 0x0 DUP1 REVERT JUMPDEST POP PUSH2 0xB2 PUSH1 0x4 DUP1 CALLDATASIZE SUB DUP2 ADD SWAP1 PUSH2 0xAD SWAP2 SWAP1 PUSH2 0x427 JUMP JUMPDEST PUSH2 0x200 JUMP JUMPDEST PUSH1 0x40 MLOAD PUSH2 0xBF SWAP2 SWAP1 PUSH2 0x463 JUMP JUMPDEST PUSH1 0x40 MLOAD DUP1 SWAP2 SUB SWAP1 RETURN JUMPDEST CALLVALUE DUP1 ISZERO PUSH2 0xD4 JUMPI PUSH1 0x0 DUP1 REVERT JUMPDEST POP PUSH2 0xDD PUSH2 0x23F JUMP JUMPDEST PUSH1 0x40 MLOAD PUSH2 0xEA SWAP2 SWAP1 PUSH2 0x3E0 JUMP JUMPDEST PUSH1 0x40 MLOAD DUP1 SWAP2 SUB SWAP1 RETURN JUMPDEST PUSH1 0x2 PUSH1 0x20 MSTORE DUP1 PUSH1 0x0 MSTORE PUSH1 0x40 PUSH1 0x0 KECCAK256 PUSH1 0x0 SWAP2 POP SWAP1 POP SLOAD DUP2 JUMP JUMPDEST PUSH1 0x0 SLOAD PUSH2 0x117 CALLVALUE PUSH2 0x245 JUMP JUMPDEST GT PUSH2 0x157 JUMPI PUSH1 0x40 MLOAD PUSH32 0x8C379A000000000000000000000000000000000000000000000000000000000 DUP2 MSTORE PUSH1 0x4 ADD PUSH2 0x14E SWAP1 PUSH2 0x4DB JUMP JUMPDEST PUSH1 0x40 MLOAD DUP1 SWAP2 SUB SWAP1 REVERT JUMPDEST PUSH1 0x1 CALLER SWAP1 DUP1 PUSH1 0x1 DUP2 SLOAD ADD DUP1 DUP3 SSTORE DUP1 SWAP2 POP POP PUSH1 0x1 SWAP1 SUB SWAP1 PUSH1 0x0 MSTORE PUSH1 0x20 PUSH1 0x0 KECCAK256 ADD PUSH1 0x0 SWAP1 SWAP2 SWAP1 SWAP2 SWAP1 SWAP2 PUSH2 0x100 EXP DUP2 SLOAD DUP2 PUSH20 0xFFFFFFFFFFFFFFFFFFFFFFFFFFFFFFFFFFFFFFFF MUL NOT AND SWAP1 DUP4 PUSH20 0xFFFFFFFFFFFFFFFFFFFFFFFFFFFFFFFFFFFFFFFF AND MUL OR SWAP1 SSTORE POP CALLVALUE PUSH1 0x2 PUSH1 0x0 CALLER PUSH20 0xFFFFFFFFFFFFFFFFFFFFFFFFFFFFFFFFFFFFFFFF AND PUSH20 0xFFFFFFFFFFFFFFFFFFFFFFFFFFFFFFFFFFFFFFFF AND DUP2 MSTORE PUSH1 0x20 ADD SWAP1 DUP2 MSTORE PUSH1 0x20 ADD PUSH1 0x0 KECCAK256 DUP2 SWAP1 SSTORE POP JUMP JUMPDEST PUSH1 0x1 DUP2 DUP2 SLOAD DUP2 LT PUSH2 0x210 JUMPI PUSH1 0x0 DUP1 REVERT JUMPDEST SWAP1 PUSH1 0x0 MSTORE PUSH1 0x20 PUSH1 0x0 KECCAK256 ADD PUSH1 0x0 SWAP2 POP SLOAD SWAP1 PUSH2 0x100 EXP SWAP1 DIV PUSH20 0xFFFFFFFFFFFFFFFFFFFFFFFFFFFFFFFFFFFFFFFF AND DUP2 JUMP JUMPDEST PUSH1 0x0 SLOAD DUP2 JUMP JUMPDEST PUSH1 0x0 DUP1 PUSH2 0x250 PUSH2 0x27F JUMP JUMPDEST SWAP1 POP PUSH1 0x0 PUSH8 0xDE0B6B3A7640000 DUP5 DUP4 PUSH2 0x269 SWAP2 SWAP1 PUSH2 0x52A JUMP JUMPDEST PUSH2 0x273 SWAP2 SWAP1 PUSH2 0x5B3 JUMP JUMPDEST SWAP1 POP DUP1 SWAP3 POP POP POP SWAP2 SWAP1 POP JUMP JUMPDEST PUSH1 0x0 DUP1 PUSH20 0xD4A33860578DE61DBABDC8BFDB98FD742FA7028E SWAP1 POP PUSH1 0x0 DUP2 PUSH20 0xFFFFFFFFFFFFFFFFFFFFFFFFFFFFFFFFFFFFFFFF AND PUSH4 0xFEAF968C PUSH1 0x40 MLOAD DUP2 PUSH4 0xFFFFFFFF AND PUSH1 0xE0 SHL DUP2 MSTORE PUSH1 0x4 ADD PUSH1 0xA0 PUSH1 0x40 MLOAD DUP1 DUP4 SUB DUP2 DUP7 DUP1 EXTCODESIZE ISZERO DUP1 ISZERO PUSH2 0x2E1 JUMPI PUSH1 0x0 DUP1 REVERT JUMPDEST POP GAS STATICCALL ISZERO DUP1 ISZERO PUSH2 0x2F5 JUMPI RETURNDATASIZE PUSH1 0x0 DUP1 RETURNDATACOPY RETURNDATASIZE PUSH1 0x0 REVERT JUMPDEST POP POP POP POP PUSH1 0x40 MLOAD RETURNDATASIZE PUSH1 0x1F NOT PUSH1 0x1F DUP3 ADD AND DUP3 ADD DUP1 PUSH1 0x40 MSTORE POP DUP2 ADD SWAP1 PUSH2 0x319 SWAP2 SWAP1 PUSH2 0x671 JUMP JUMPDEST POP POP POP SWAP2 POP POP PUSH5 0x2540BE400 DUP2 PUSH2 0x330 SWAP2 SWAP1 PUSH2 0x6EC JUMP JUMPDEST SWAP3 POP POP POP SWAP1 JUMP JUMPDEST PUSH1 0x0 DUP1 REVERT JUMPDEST PUSH1 0x0 PUSH20 0xFFFFFFFFFFFFFFFFFFFFFFFFFFFFFFFFFFFFFFFF DUP3 AND SWAP1 POP SWAP2 SWAP1 POP JUMP JUMPDEST PUSH1 0x0 PUSH2 0x367 DUP3 PUSH2 0x33C JUMP JUMPDEST SWAP1 POP SWAP2 SWAP1 POP JUMP JUMPDEST PUSH2 0x377 DUP2 PUSH2 0x35C JUMP JUMPDEST DUP2 EQ PUSH2 0x382 JUMPI PUSH1 0x0 DUP1 REVERT JUMPDEST POP JUMP JUMPDEST PUSH1 0x0 DUP2 CALLDATALOAD SWAP1 POP PUSH2 0x394 DUP2 PUSH2 0x36E JUMP JUMPDEST SWAP3 SWAP2 POP POP JUMP JUMPDEST PUSH1 0x0 PUSH1 0x20 DUP3 DUP5 SUB SLT ISZERO PUSH2 0x3B0 JUMPI PUSH2 0x3AF PUSH2 0x337 JUMP JUMPDEST JUMPDEST PUSH1 0x0 PUSH2 0x3BE DUP5 DUP3 DUP6 ADD PUSH2 0x385 JUMP JUMPDEST SWAP2 POP POP SWAP3 SWAP2 POP POP JUMP JUMPDEST PUSH1 0x0 DUP2 SWAP1 POP SWAP2 SWAP1 POP JUMP JUMPDEST PUSH2 0x3DA DUP2 PUSH2 0x3C7 JUMP JUMPDEST DUP3 MSTORE POP POP JUMP JUMPDEST PUSH1 0x0 PUSH1 0x20 DUP3 ADD SWAP1 POP PUSH2 0x3F5 PUSH1 0x0 DUP4 ADD DUP5 PUSH2 0x3D1 JUMP JUMPDEST SWAP3 SWAP2 POP POP JUMP JUMPDEST PUSH2 0x404 DUP2 PUSH2 0x3C7 JUMP JUMPDEST DUP2 EQ PUSH2 0x40F JUMPI PUSH1 0x0 DUP1 REVERT JUMPDEST POP JUMP JUMPDEST PUSH1 0x0 DUP2 CALLDATALOAD SWAP1 POP PUSH2 0x421 DUP2 PUSH2 0x3FB JUMP JUMPDEST SWAP3 SWAP2 POP POP JUMP JUMPDEST PUSH1 0x0 PUSH1 0x20 DUP3 DUP5 SUB SLT ISZERO PUSH2 0x43D JUMPI PUSH2 0x43C PUSH2 0x337 JUMP JUMPDEST JUMPDEST PUSH1 0x0 PUSH2 0x44B DUP5 DUP3 DUP6 ADD PUSH2 0x412 JUMP JUMPDEST SWAP2 POP POP SWAP3 SWAP2 POP POP JUMP JUMPDEST PUSH2 0x45D DUP2 PUSH2 0x35C JUMP JUMPDEST DUP3 MSTORE POP POP JUMP JUMPDEST PUSH1 0x0 PUSH1 0x20 DUP3 ADD SWAP1 POP PUSH2 0x478 PUSH1 0x0 DUP4 ADD DUP5 PUSH2 0x454 JUMP JUMPDEST SWAP3 SWAP2 POP POP JUMP JUMPDEST PUSH1 0x0 DUP3 DUP3 MSTORE PUSH1 0x20 DUP3 ADD SWAP1 POP SWAP3 SWAP2 POP POP JUMP JUMPDEST PUSH32 0x4469646E742073656E6420656E6F756768000000000000000000000000000000 PUSH1 0x0 DUP3 ADD MSTORE POP JUMP JUMPDEST PUSH1 0x0 PUSH2 0x4C5 PUSH1 0x11 DUP4 PUSH2 0x47E JUMP JUMPDEST SWAP2 POP PUSH2 0x4D0 DUP3 PUSH2 0x48F JUMP JUMPDEST PUSH1 0x20 DUP3 ADD SWAP1 POP SWAP2 SWAP1 POP JUMP JUMPDEST PUSH1 0x0 PUSH1 0x20 DUP3 ADD SWAP1 POP DUP2 DUP2 SUB PUSH1 0x0 DUP4 ADD MSTORE PUSH2 0x4F4 DUP2 PUSH2 0x4B8 JUMP JUMPDEST SWAP1 POP SWAP2 SWAP1 POP JUMP JUMPDEST PUSH32 0x4E487B7100000000000000000000000000000000000000000000000000000000 PUSH1 0x0 MSTORE PUSH1 0x11 PUSH1 0x4 MSTORE PUSH1 0x24 PUSH1 0x0 REVERT JUMPDEST PUSH1 0x0 PUSH2 0x535 DUP3 PUSH2 0x3C7 JUMP JUMPDEST SWAP2 POP PUSH2 0x540 DUP4 PUSH2 0x3C7 JUMP JUMPDEST SWAP3 POP DUP2 PUSH32 0xFFFFFFFFFFFFFFFFFFFFFFFFFFFFFFFFFFFFFFFFFFFFFFFFFFFFFFFFFFFFFFFF DIV DUP4 GT DUP3 ISZERO ISZERO AND ISZERO PUSH2 0x579 JUMPI PUSH2 0x578 PUSH2 0x4FB JUMP JUMPDEST JUMPDEST DUP3 DUP3 MUL SWAP1 POP SWAP3 SWAP2 POP POP JUMP JUMPDEST PUSH32 0x4E487B7100000000000000000000000000000000000000000000000000000000 PUSH1 0x0 MSTORE PUSH1 0x12 PUSH1 0x4 MSTORE PUSH1 0x24 PUSH1 0x0 REVERT JUMPDEST PUSH1 0x0 PUSH2 0x5BE DUP3 PUSH2 0x3C7 JUMP JUMPDEST SWAP2 POP PUSH2 0x5C9 DUP4 PUSH2 0x3C7 JUMP JUMPDEST SWAP3 POP DUP3 PUSH2 0x5D9 JUMPI PUSH2 0x5D8 PUSH2 0x584 JUMP JUMPDEST JUMPDEST DUP3 DUP3 DIV SWAP1 POP SWAP3 SWAP2 POP POP JUMP JUMPDEST PUSH1 0x0 PUSH10 0xFFFFFFFFFFFFFFFFFFFF DUP3 AND SWAP1 POP SWAP2 SWAP1 POP JUMP JUMPDEST PUSH2 0x603 DUP2 PUSH2 0x5E4 JUMP JUMPDEST DUP2 EQ PUSH2 0x60E JUMPI PUSH1 0x0 DUP1 REVERT JUMPDEST POP JUMP JUMPDEST PUSH1 0x0 DUP2 MLOAD SWAP1 POP PUSH2 0x620 DUP2 PUSH2 0x5FA JUMP JUMPDEST SWAP3 SWAP2 POP POP JUMP JUMPDEST PUSH1 0x0 DUP2 SWAP1 POP SWAP2 SWAP1 POP JUMP JUMPDEST PUSH2 0x639 DUP2 PUSH2 0x626 JUMP JUMPDEST DUP2 EQ PUSH2 0x644 JUMPI PUSH1 0x0 DUP1 REVERT JUMPDEST POP JUMP JUMPDEST PUSH1 0x0 DUP2 MLOAD SWAP1 POP PUSH2 0x656 DUP2 PUSH2 0x630 JUMP JUMPDEST SWAP3 SWAP2 POP POP JUMP JUMPDEST PUSH1 0x0 DUP2 MLOAD SWAP1 POP PUSH2 0x66B DUP2 PUSH2 0x3FB JUMP JUMPDEST SWAP3 SWAP2 POP POP JUMP JUMPDEST PUSH1 0x0 DUP1 PUSH1 0x0 DUP1 PUSH1 0x0 PUSH1 0xA0 DUP7 DUP9 SUB SLT ISZERO PUSH2 0x68D JUMPI PUSH2 0x68C PUSH2 0x337 JUMP JUMPDEST JUMPDEST PUSH1 0x0 PUSH2 0x69B DUP9 DUP3 DUP10 ADD PUSH2 0x611 JUMP JUMPDEST SWAP6 POP POP PUSH1 0x20 PUSH2 0x6AC DUP9 DUP3 DUP10 ADD PUSH2 0x647 JUMP JUMPDEST SWAP5 POP POP PUSH1 0x40 PUSH2 0x6BD DUP9 DUP3 DUP10 ADD PUSH2 0x65C JUMP JUMPDEST SWAP4 POP POP PUSH1 0x60 PUSH2 0x6CE DUP9 DUP3 DUP10 ADD PUSH2 0x65C JUMP JUMPDEST SWAP3 POP POP PUSH1 0x80 PUSH2 0x6DF DUP9 DUP3 DUP10 ADD PUSH2 0x611 JUMP JUMPDEST SWAP2 POP POP SWAP3 SWAP6 POP SWAP3 SWAP6 SWAP1 SWAP4 POP JUMP JUMPDEST PUSH1 0x0 PUSH2 0x6F7 DUP3 PUSH2 0x626 JUMP JUMPDEST SWAP2 POP PUSH2 0x702 DUP4 PUSH2 0x626 JUMP JUMPDEST SWAP3 POP DUP3 PUSH32 0x7FFFFFFFFFFFFFFFFFFFFFFFFFFFFFFFFFFFFFFFFFFFFFFFFFFFFFFFFFFFFFFF DIV DUP3 GT PUSH1 0x0 DUP5 SGT PUSH1 0x0 DUP5 SGT AND AND ISZERO PUSH2 0x741 JUMPI PUSH2 0x740 PUSH2 0x4FB JUMP JUMPDEST JUMPDEST DUP2 PUSH32 0x8000000000000000000000000000000000000000000000000000000000000000 SDIV DUP4 SLT PUSH1 0x0 DUP5 SLT PUSH1 0x0 DUP5 SGT AND AND ISZERO PUSH2 0x77E JUMPI PUSH2 0x77D PUSH2 0x4FB JUMP JUMPDEST JUMPDEST DUP3 PUSH32 0x8000000000000000000000000000000000000000000000000000000000000000 SDIV DUP3 SLT PUSH1 0x0 DUP5 SGT PUSH1 0x0 DUP5 SLT AND AND ISZERO PUSH2 0x7BB JUMPI PUSH2 0x7BA PUSH2 0x4FB JUMP JUMPDEST JUMPDEST DUP3 PUSH32 0x7FFFFFFFFFFFFFFFFFFFFFFFFFFFFFFFFFFFFFFFFFFFFFFFFFFFFFFFFFFFFFFF SDIV DUP3 SLT PUSH1 0x0 DUP5 SLT PUSH1 0x0 DUP5 SLT AND AND ISZERO PUSH2 0x7F8 JUMPI PUSH2 0x7F7 PUSH2 0x4FB JUMP JUMPDEST JUMPDEST DUP3 DUP3 MUL SWAP1 POP SWAP3 SWAP2 POP POP JUMP INVALID LOG2 PUSH5 0x6970667358 0x22 SLT KECCAK256 0xEF BALANCE PUSH26 0x5E7164C1B5F4B039A40E85AF4EEC373D3B09DFC34B31733D8109 0x2B PUSH5 0x8C64736F6C PUSH4 0x43000808 STOP CALLER "
		},
		"gasEstimates": {
			"creation": {
				"codeDepositCost": "421000",
				"executionCost": "22561",
				"totalCost": "443561"
			},
			"external": {
				"addressToAmount(address)": "2792",
				"fund()": "infinite",
				"funders(uint256)": "4978",
				"minUSD()": "2473"
			}
		},
		"methodIdentifiers": {
			"addressToAmount(address)": "3c7e7d28",
			"fund()": "b60d4288",
			"funders(uint256)": "dc0d3dff",
			"minUSD()": "dc992aa0"
		}
	},
	"abi": [
		{
			"inputs": [
				{
					"internalType": "address",
					"name": "",
					"type": "address"
				}
			],
			"name": "addressToAmount",
			"outputs": [
				{
					"internalType": "uint256",
					"name": "",
					"type": "uint256"
				}
			],
			"stateMutability": "view",
			"type": "function"
		},
		{
			"inputs": [],
			"name": "fund",
			"outputs": [],
			"stateMutability": "payable",
			"type": "function"
		},
		{
			"inputs": [
				{
					"internalType": "uint256",
					"name": "",
					"type": "uint256"
				}
			],
			"name": "funders",
			"outputs": [
				{
					"internalType": "address",
					"name": "",
					"type": "address"
				}
			],
			"stateMutability": "view",
			"type": "function"
		},
		{
			"inputs": [],
			"name": "minUSD",
			"outputs": [
				{
					"internalType": "uint256",
					"name": "",
					"type": "uint256"
				}
			],
			"stateMutability": "view",
			"type": "function"
		}
	]
}